:100000000C945D000C947A000C947A000C947A00A5
:100010000C947A000C947A000C947A000C944B03A4
:100020000C947A000C947A000C947A000C947A0068
:100030000C947A000C947A000C947A000C947A0058
:100040000C94A7030C947A000C947A000C947A0018
:100050000C947A000C947A000C947A000C947A0038
:100060000C947A000C947A00000000002400270011
:100070002A0000000008000201000003040700003D
:10008000000000000000010204081020408001026E
:1000900004081020010204081020000000002500C0
:1000A00028002B00040404040404040402020202D5
:1000B0000202030303030303020011241FBECFEF58
:1000C000D8E0DEBFCDBF11E0A0E0B1E0E4E6F9E0AA
:1000D00002C005900D92A230B107D9F721E0A2E04D
:1000E000B1E001C01D92A432B207E1F70E94F10312
:1000F0000C94B0040C9400009091000189130DC081
:10010000E8EBF0E0E4919FEF90930001E13009F417
:1001100031C068F1E23009F433C090E0FC01EE58E0
:10012000FF4F2491FC01EA57FF4F3491FC01EC553D
:10013000FF4FE491EE23D1F0222351F0233009F454
:100140003AC078F5213009F43CC0223009F43DC0B2
:10015000F0E0EE0FFF1FE656FF4FA591B4918FB769
:10016000F894EC9130953E233C938FBF0895109204
:100170006E00D3CF90916F009D7F90936F00CDCF95
:10018000909170009D7F9093700091E09093B000EB
:100190009091B100987F94609093B1001092B30059
:1001A000BCCF2730A9F02830C9F0243089F68091DF
:1001B00080008F7D03C0809180008F7780938000C6
:1001C000C7CF84B58F7784BDC3CF84B58F7DFBCF78
:1001D0008091B0008F778093B000BACF8091B0004B
:1001E0008F7DF9CFCF93DF9390E0FC01EA57FF4F6B
:1001F00024918C559F4FFC0184918823D1F090E08D
:10020000880F991FFC01E859FF4FA591B491FC019B
:10021000E656FF4FC591D49161110EC09FB7F89477
:100220008C91E22FE0958E238C932881E223E88342
:100230009FBFDF91CF9108958FB7F894EC91E22B97
:10024000EC938FBFF6CF3FB7F89480910F01909158
:100250001001A0911101B091120126B5A89B05C013
:100260002F3F19F00196A11DB11D3FBFBA2FA92F35
:10027000982F8827BC01CD01620F711D811D911D32
:1002800042E0660F771F881F991F4A95D1F708959E
:100290008F929F92AF92BF92CF92DF92EF92FF9296
:1002A000CF936C0180910001853089F18F3F09F473
:1002B000D5C00E9423014B015C0124E6C22ED12C43
:1002C000E12CF12C0E942301681979098A099B0904
:1002D000683E734081059105A8F321E0C21AD10858
:1002E000E108F10888EE880E83E0981EA11CB11C7D
:1002F000C114D104E104F10429F7CF91FF90EF90EC
:10030000DF90CF90BF90AF909F908F900895E8EBD3
:10031000F0E0C491C7FDCDCF61E085E00E94F2001E
:10032000CC2319F0C23009F063C1F12CE12C60E05C
:1003300072E18AE790E0A70196010E946F044901EB
:100340005A01DA01C9010197A109B1098F3F91054D
:10035000A105B10509F00CF42FC160E472E48FE04F
:1003600090E0A70196010E946F04215031094109D4
:100370005109C23009F0E1C082E02F3F310541054B
:10038000510509F00CF45BC060E970ED83E090E08A
:10039000A70196010E946F042150310941095109BA
:1003A00083E02F3F31054105510509F00CF447C0AA
:1003B00068E478EE81E090E0A70196010E946F0466
:1003C000215031094109510984E02F3F3105410590
:1003D0005105A9F1A4F164E274EF80E090E0A70177
:1003E00096010E946F04215031094109510985E0AD
:1003F0002F3F31054105510511F108F162E17AE71E
:1004000080E090E0A70196010E946F04215031091D
:100410004109510986E02F3F31054105510579F029
:1004200070F08AE0B594A794979487948A95D1F751
:10043000A5019401215031094109510987E09091AA
:10044000B100987F892B8093B100C13009F4FBC0C3
:10045000C23009F40DC1C1112CCFB6C085E0809324
:100460000001E8EBF0E0C491CF3F09F422CFC130A6
:1004700021F150F0C23009F43EC0C7FD1ACF61E04F
:1004800085E00E94F2004ECF14BC15BC84B582609A
:1004900084BD85B5816085BDE9EAF0E0E491F0E0D6
:1004A000EE0FFF1FE656FF4F85919491EBE8F0E0C9
:1004B000E491E0931701C0E02FCF109280001092DA
:1004C000810080918100886080938100809181000B
:1004D000816080938100E9EAF0E0E491F0E0EE0FC2
:1004E000FF1FE656FF4F85919491EBE8F0E0E49111
:1004F000E093160111CF1092B0001092B1008091DC
:10050000B00082608093B0008091B10081608093E0
:10051000B100E9EAF0E0E491F0E0EE0FFF1FE656EB
:10052000FF4F859194919093150180931401EBE80E
:10053000F0E0E491E0931301EFCE2F3F3105410548
:10054000510509F00CF452C068E478EE81E090E0C7
:10055000A70196010E946F042150310941095109F8
:1005600084E0C11145CF83E02F3F3105410551059E
:1005700039F134F162E17AE780E090E0A701960179
:100580000E946F04215031094109510984E02F3F35
:10059000310541055105A1F098F09AE0B594A79472
:1005A000979487949A95D1F7A50194012150310928
:1005B0004109510985E004C09C0181E0C1113FCF90
:1005C00095B5987F892B85BD27BD8FEF9FEFDC0107
:1005D0008093200190932101A0932201B0932301E5
:1005E00080916E00826080936E0063CE82E0E6CFE1
:1005F000F12CE12C60E072E18AE790E0A70196011E
:100600000E946F04215031094109510991E02115DF
:10061000310581E0480751056CF068E478EE81E02F
:1006200090E0A70196010E946F0421503109410911
:10063000510993E0C13009F008CF80918100887F93
:10064000892B8093810030938900209388008FEF5D
:100650009FEFDC0180931C0190931D01A0931E016C
:10066000B0931F0180916F00826080936F0021CE54
:100670002093B3008FEF9FEFDC01809318019093DC
:100680001901A0931A01B0931B0180917000826040
:10069000809370000ECE1F920F920FB60F9211240E
:1006A0002F933F934F935F936F937F938F939F937A
:1006B000AF93BF93EF93FF9380911801909119012D
:1006C000A0911A01B0911B01892B8A2B8B2BD1F1A0
:1006D00090911301E0911401F09115018081892717
:1006E00080838091180190911901A0911A01B09115
:1006F0001B01181619061A061B069CF48091180196
:1007000090911901A0911A01B0911B010197A109C3
:10071000B1098093180190931901A0931A01B09325
:100720001B01FF91EF91BF91AF919F918F917F91AD
:100730006F915F914F913F912F910F900FBE0F904E
:100740001F901895809100010E947C00EACF1F92B3
:100750000F920FB60F9211242F933F938F939F9375
:10076000AF93BF9380910B0190910C01A0910D016B
:10077000B0910E0130910A0123E0230F2D3758F577
:100780000196A11DB11D20930A0180930B01909346
:100790000C01A0930D01B0930E0180910F01909177
:1007A0001001A0911101B09112010196A11DB11D7E
:1007B00080930F0190931001A0931101B093120147
:1007C000BF91AF919F918F913F912F910F900FBE4D
:1007D0000F901F90189526E8230F0296A11DB11DBA
:1007E000D2CF789484B5826084BD84B5816084BDA5
:1007F00085B5826085BD85B5816085BD80916E00BF
:10080000816080936E0010928100809181008260EF
:10081000809381008091810081608093810080912C
:1008200080008160809380008091B100846080931B
:10083000B1008091B00081608093B00080917A0017
:10084000846080937A0080917A00826080937A003D
:1008500080917A00816080937A0080917A0080682C
:1008600080937A001092C10060E08BE00E94F20059
:1008700061E08CE00E94F20061E089E00E94F200F9
:1008800061E088E00E94F20061E087E00E94F200EF
:1008900061E086E00E94F20060E082E00E94F200E7
:1008A000CBE0D0E08DE299E00E9448018DE299E032
:1008B0000E9448018AEE9AE00E94480180E49CE090
:1008C0000E94480180EC9DE00E94480185E00E9462
:1008D0007C00219739F790E080E00E94B004052E5B
:1008E00097FB1EF400940E94860457FD07D00E94D7
:1008F0008E0407FC03D04EF40C948604509540956A
:10090000309521953F4F4F4F5F4F089590958095BB
:10091000709561957F4F8F4F9F4F0895A1E21A2EDA
:10092000AA1BBB1BFD010DC0AA1FBB1FEE1FFF1F93
:10093000A217B307E407F50720F0A21BB30BE40BE3
:10094000F50B661F771F881F991F1A9469F760952A
:100950007095809590959B01AC01BD01CF010895E4
:04096000F894FFCF39
:02096400FF0092
:00000001FF
